{
  "_format": "hh-sol-artifact-1",
  "contractName": "TokenizedBallot",
  "sourceName": "contracts/TokenizedBallot.sol",
  "abi": [
    {
      "inputs": [
        {
          "internalType": "bytes32[]",
          "name": "_proposalNames",
          "type": "bytes32[]"
        },
        {
          "internalType": "address",
          "name": "_tokenContract",
          "type": "address"
        },
        {
          "internalType": "uint256",
          "name": "_referenceBlock",
          "type": "uint256"
        }
      ],
      "stateMutability": "nonpayable",
      "type": "constructor"
    },
    {
      "inputs": [
        {
          "internalType": "uint256",
          "name": "",
          "type": "uint256"
        }
      ],
      "name": "proposals",
      "outputs": [
        {
          "internalType": "bytes32",
          "name": "name",
          "type": "bytes32"
        },
        {
          "internalType": "uint256",
          "name": "voteCount",
          "type": "uint256"
        }
      ],
      "stateMutability": "view",
      "type": "function"
    },
    {
      "inputs": [],
      "name": "referenceBlock",
      "outputs": [
        {
          "internalType": "uint256",
          "name": "",
          "type": "uint256"
        }
      ],
      "stateMutability": "view",
      "type": "function"
    },
    {
      "inputs": [],
      "name": "tokenContract",
      "outputs": [
        {
          "internalType": "contract ITokenizedVotes",
          "name": "",
          "type": "address"
        }
      ],
      "stateMutability": "view",
      "type": "function"
    },
    {
      "inputs": [
        {
          "internalType": "uint256",
          "name": "proposal",
          "type": "uint256"
        },
        {
          "internalType": "uint256",
          "name": "amount",
          "type": "uint256"
        }
      ],
      "name": "vote",
      "outputs": [],
      "stateMutability": "nonpayable",
      "type": "function"
    },
    {
      "inputs": [
        {
          "internalType": "address",
          "name": "account",
          "type": "address"
        }
      ],
      "name": "votingPower",
      "outputs": [
        {
          "internalType": "uint256",
          "name": "votingPower_",
          "type": "uint256"
        }
      ],
      "stateMutability": "view",
      "type": "function"
    },
    {
      "inputs": [
        {
          "internalType": "address",
          "name": "",
          "type": "address"
        }
      ],
      "name": "votingPowerSpent",
      "outputs": [
        {
          "internalType": "uint256",
          "name": "",
          "type": "uint256"
        }
      ],
      "stateMutability": "view",
      "type": "function"
    },
    {
      "inputs": [],
      "name": "winnerName",
      "outputs": [
        {
          "internalType": "bytes32",
          "name": "winnerName_",
          "type": "bytes32"
        }
      ],
      "stateMutability": "view",
      "type": "function"
    },
    {
      "inputs": [],
      "name": "winningProposal",
      "outputs": [
        {
          "internalType": "uint256",
          "name": "winningProposal_",
          "type": "uint256"
        }
      ],
      "stateMutability": "view",
      "type": "function"
    }
  ],
  "bytecode": "0x60806040523480156200001157600080fd5b5060405162000de938038062000de9833981810160405281019062000037919062000384565b60005b8351811015620000ce5760026040518060400160405280868481518110620000675762000066620003ff565b5b6020026020010151815260200160008152509080600181540180825580915050600190039060005260206000209060020201600090919091909150600082015181600001556020820151816001015550508080620000c5906200045d565b9150506200003a565b5081600160006101000a81548173ffffffffffffffffffffffffffffffffffffffff021916908373ffffffffffffffffffffffffffffffffffffffff16021790555080600081905550505050620004aa565b6000604051905090565b600080fd5b600080fd5b600080fd5b6000601f19601f8301169050919050565b7f4e487b7100000000000000000000000000000000000000000000000000000000600052604160045260246000fd5b620001848262000139565b810181811067ffffffffffffffff82111715620001a657620001a56200014a565b5b80604052505050565b6000620001bb62000120565b9050620001c9828262000179565b919050565b600067ffffffffffffffff821115620001ec57620001eb6200014a565b5b602082029050602081019050919050565b600080fd5b6000819050919050565b620002178162000202565b81146200022357600080fd5b50565b60008151905062000237816200020c565b92915050565b6000620002546200024e84620001ce565b620001af565b905080838252602082019050602084028301858111156200027a5762000279620001fd565b5b835b81811015620002a7578062000292888262000226565b8452602084019350506020810190506200027c565b5050509392505050565b600082601f830112620002c957620002c862000134565b5b8151620002db8482602086016200023d565b91505092915050565b600073ffffffffffffffffffffffffffffffffffffffff82169050919050565b60006200031182620002e4565b9050919050565b620003238162000304565b81146200032f57600080fd5b50565b600081519050620003438162000318565b92915050565b6000819050919050565b6200035e8162000349565b81146200036a57600080fd5b50565b6000815190506200037e8162000353565b92915050565b600080600060608486031215620003a0576200039f6200012a565b5b600084015167ffffffffffffffff811115620003c157620003c06200012f565b5b620003cf86828701620002b1565b9350506020620003e28682870162000332565b9250506040620003f5868287016200036d565b9150509250925092565b7f4e487b7100000000000000000000000000000000000000000000000000000000600052603260045260246000fd5b7f4e487b7100000000000000000000000000000000000000000000000000000000600052601160045260246000fd5b60006200046a8262000349565b91507fffffffffffffffffffffffffffffffffffffffffffffffffffffffffffffffff82036200049f576200049e6200042e565b5b600182019050919050565b61092f80620004ba6000396000f3fe608060405234801561001057600080fd5b50600436106100885760003560e01c8063b384abef1161005b578063b384abef1461012a578063c07473f614610146578063d94c8caa14610176578063e2ba53f01461019457610088565b8063013cf08b1461008d57806355a373d6146100be578063609ff1bd146100dc578063a7200351146100fa575b600080fd5b6100a760048036038101906100a291906104fb565b6101b2565b6040516100b5929190610550565b60405180910390f35b6100c66101e6565b6040516100d391906105f8565b60405180910390f35b6100e461020c565b6040516100f19190610613565b60405180910390f35b610114600480360381019061010f919061066c565b610294565b6040516101219190610613565b60405180910390f35b610144600480360381019061013f9190610699565b6102ac565b005b610160600480360381019061015b919061066c565b610393565b60405161016d9190610613565b60405180910390f35b61017e610486565b60405161018b9190610613565b60405180910390f35b61019c61048c565b6040516101a991906106d9565b60405180910390f35b600281815481106101c257600080fd5b90600052602060002090600202016000915090508060000154908060010154905082565b600160009054906101000a900473ffffffffffffffffffffffffffffffffffffffff1681565b6000806000905060005b60028054905081101561028f578160028281548110610238576102376106f4565b5b906000526020600020906002020160010154111561027c5760028181548110610264576102636106f4565b5b90600052602060002090600202016001015491508092505b808061028790610752565b915050610216565b505090565b60036020528060005260406000206000915090505481565b60006102b733610393565b9050818110156102fc576040517f08c379a00000000000000000000000000000000000000000000000000000000081526004016102f3906107f7565b60405180910390fd5b81600360003373ffffffffffffffffffffffffffffffffffffffff1673ffffffffffffffffffffffffffffffffffffffff168152602001908152602001600020600082825461034b9190610817565b925050819055508160028481548110610367576103666106f4565b5b906000526020600020906002020160010160008282546103879190610817565b92505081905550505050565b6000600360008373ffffffffffffffffffffffffffffffffffffffff1673ffffffffffffffffffffffffffffffffffffffff16815260200190815260200160002054600160009054906101000a900473ffffffffffffffffffffffffffffffffffffffff1673ffffffffffffffffffffffffffffffffffffffff16633a46b1a8846000546040518363ffffffff1660e01b815260040161043492919061085a565b602060405180830381865afa158015610451573d6000803e3d6000fd5b505050506040513d601f19601f820116820180604052508101906104759190610898565b61047f91906108c5565b9050919050565b60005481565b6000600261049861020c565b815481106104a9576104a86106f4565b5b906000526020600020906002020160000154905090565b600080fd5b6000819050919050565b6104d8816104c5565b81146104e357600080fd5b50565b6000813590506104f5816104cf565b92915050565b600060208284031215610511576105106104c0565b5b600061051f848285016104e6565b91505092915050565b6000819050919050565b61053b81610528565b82525050565b61054a816104c5565b82525050565b60006040820190506105656000830185610532565b6105726020830184610541565b9392505050565b600073ffffffffffffffffffffffffffffffffffffffff82169050919050565b6000819050919050565b60006105be6105b96105b484610579565b610599565b610579565b9050919050565b60006105d0826105a3565b9050919050565b60006105e2826105c5565b9050919050565b6105f2816105d7565b82525050565b600060208201905061060d60008301846105e9565b92915050565b60006020820190506106286000830184610541565b92915050565b600061063982610579565b9050919050565b6106498161062e565b811461065457600080fd5b50565b60008135905061066681610640565b92915050565b600060208284031215610682576106816104c0565b5b600061069084828501610657565b91505092915050565b600080604083850312156106b0576106af6104c0565b5b60006106be858286016104e6565b92505060206106cf858286016104e6565b9150509250929050565b60006020820190506106ee6000830184610532565b92915050565b7f4e487b7100000000000000000000000000000000000000000000000000000000600052603260045260246000fd5b7f4e487b7100000000000000000000000000000000000000000000000000000000600052601160045260246000fd5b600061075d826104c5565b91507fffffffffffffffffffffffffffffffffffffffffffffffffffffffffffffffff820361078f5761078e610723565b5b600182019050919050565b600082825260208201905092915050565b7f4e6f7420656e6f75676820766f74696e6720706f776572210000000000000000600082015250565b60006107e160188361079a565b91506107ec826107ab565b602082019050919050565b60006020820190508181036000830152610810816107d4565b9050919050565b6000610822826104c5565b915061082d836104c5565b925082820190508082111561084557610844610723565b5b92915050565b6108548161062e565b82525050565b600060408201905061086f600083018561084b565b61087c6020830184610541565b9392505050565b600081519050610892816104cf565b92915050565b6000602082840312156108ae576108ad6104c0565b5b60006108bc84828501610883565b91505092915050565b60006108d0826104c5565b91506108db836104c5565b92508282039050818111156108f3576108f2610723565b5b9291505056fea26469706673582212208308cfb33dddc7060a1926655b832a269616130eda81b358efd9bb5f692da7a464736f6c63430008110033",
  "linkReferences": {},
  "deployedLinkReferences": {}
}