{
  "_format": "hh-sol-artifact-1",
  "contractName": "G11Token",
  "sourceName": "contracts/G11Token.sol",
  "abi": [
    {
      "inputs": [],
      "stateMutability": "nonpayable",
      "type": "constructor"
    },
    {
      "anonymous": false,
      "inputs": [
        {
          "indexed": true,
          "internalType": "address",
          "name": "owner",
          "type": "address"
        },
        {
          "indexed": true,
          "internalType": "address",
          "name": "spender",
          "type": "address"
        },
        {
          "indexed": false,
          "internalType": "uint256",
          "name": "value",
          "type": "uint256"
        }
      ],
      "name": "Approval",
      "type": "event"
    },
    {
      "anonymous": false,
      "inputs": [
        {
          "indexed": true,
          "internalType": "address",
          "name": "delegator",
          "type": "address"
        },
        {
          "indexed": true,
          "internalType": "address",
          "name": "fromDelegate",
          "type": "address"
        },
        {
          "indexed": true,
          "internalType": "address",
          "name": "toDelegate",
          "type": "address"
        }
      ],
      "name": "DelegateChanged",
      "type": "event"
    },
    {
      "anonymous": false,
      "inputs": [
        {
          "indexed": true,
          "internalType": "address",
          "name": "delegate",
          "type": "address"
        },
        {
          "indexed": false,
          "internalType": "uint256",
          "name": "previousBalance",
          "type": "uint256"
        },
        {
          "indexed": false,
          "internalType": "uint256",
          "name": "newBalance",
          "type": "uint256"
        }
      ],
      "name": "DelegateVotesChanged",
      "type": "event"
    },
    {
      "anonymous": false,
      "inputs": [
        {
          "indexed": true,
          "internalType": "bytes32",
          "name": "role",
          "type": "bytes32"
        },
        {
          "indexed": true,
          "internalType": "bytes32",
          "name": "previousAdminRole",
          "type": "bytes32"
        },
        {
          "indexed": true,
          "internalType": "bytes32",
          "name": "newAdminRole",
          "type": "bytes32"
        }
      ],
      "name": "RoleAdminChanged",
      "type": "event"
    },
    {
      "anonymous": false,
      "inputs": [
        {
          "indexed": true,
          "internalType": "bytes32",
          "name": "role",
          "type": "bytes32"
        },
        {
          "indexed": true,
          "internalType": "address",
          "name": "account",
          "type": "address"
        },
        {
          "indexed": true,
          "internalType": "address",
          "name": "sender",
          "type": "address"
        }
      ],
      "name": "RoleGranted",
      "type": "event"
    },
    {
      "anonymous": false,
      "inputs": [
        {
          "indexed": true,
          "internalType": "bytes32",
          "name": "role",
          "type": "bytes32"
        },
        {
          "indexed": true,
          "internalType": "address",
          "name": "account",
          "type": "address"
        },
        {
          "indexed": true,
          "internalType": "address",
          "name": "sender",
          "type": "address"
        }
      ],
      "name": "RoleRevoked",
      "type": "event"
    },
    {
      "anonymous": false,
      "inputs": [
        {
          "indexed": true,
          "internalType": "address",
          "name": "from",
          "type": "address"
        },
        {
          "indexed": true,
          "internalType": "address",
          "name": "to",
          "type": "address"
        },
        {
          "indexed": false,
          "internalType": "uint256",
          "name": "value",
          "type": "uint256"
        }
      ],
      "name": "Transfer",
      "type": "event"
    },
    {
      "inputs": [],
      "name": "DEFAULT_ADMIN_ROLE",
      "outputs": [
        {
          "internalType": "bytes32",
          "name": "",
          "type": "bytes32"
        }
      ],
      "stateMutability": "view",
      "type": "function"
    },
    {
      "inputs": [],
      "name": "DOMAIN_SEPARATOR",
      "outputs": [
        {
          "internalType": "bytes32",
          "name": "",
          "type": "bytes32"
        }
      ],
      "stateMutability": "view",
      "type": "function"
    },
    {
      "inputs": [],
      "name": "MINTER_ROLE",
      "outputs": [
        {
          "internalType": "bytes32",
          "name": "",
          "type": "bytes32"
        }
      ],
      "stateMutability": "view",
      "type": "function"
    },
    {
      "inputs": [
        {
          "internalType": "address",
          "name": "owner",
          "type": "address"
        },
        {
          "internalType": "address",
          "name": "spender",
          "type": "address"
        }
      ],
      "name": "allowance",
      "outputs": [
        {
          "internalType": "uint256",
          "name": "",
          "type": "uint256"
        }
      ],
      "stateMutability": "view",
      "type": "function"
    },
    {
      "inputs": [
        {
          "internalType": "address",
          "name": "spender",
          "type": "address"
        },
        {
          "internalType": "uint256",
          "name": "amount",
          "type": "uint256"
        }
      ],
      "name": "approve",
      "outputs": [
        {
          "internalType": "bool",
          "name": "",
          "type": "bool"
        }
      ],
      "stateMutability": "nonpayable",
      "type": "function"
    },
    {
      "inputs": [
        {
          "internalType": "address",
          "name": "account",
          "type": "address"
        }
      ],
      "name": "balanceOf",
      "outputs": [
        {
          "internalType": "uint256",
          "name": "",
          "type": "uint256"
        }
      ],
      "stateMutability": "view",
      "type": "function"
    },
    {
      "inputs": [
        {
          "internalType": "address",
          "name": "account",
          "type": "address"
        },
        {
          "internalType": "uint32",
          "name": "pos",
          "type": "uint32"
        }
      ],
      "name": "checkpoints",
      "outputs": [
        {
          "components": [
            {
              "internalType": "uint32",
              "name": "fromBlock",
              "type": "uint32"
            },
            {
              "internalType": "uint224",
              "name": "votes",
              "type": "uint224"
            }
          ],
          "internalType": "struct ERC20Votes.Checkpoint",
          "name": "",
          "type": "tuple"
        }
      ],
      "stateMutability": "view",
      "type": "function"
    },
    {
      "inputs": [],
      "name": "decimals",
      "outputs": [
        {
          "internalType": "uint8",
          "name": "",
          "type": "uint8"
        }
      ],
      "stateMutability": "view",
      "type": "function"
    },
    {
      "inputs": [
        {
          "internalType": "address",
          "name": "spender",
          "type": "address"
        },
        {
          "internalType": "uint256",
          "name": "subtractedValue",
          "type": "uint256"
        }
      ],
      "name": "decreaseAllowance",
      "outputs": [
        {
          "internalType": "bool",
          "name": "",
          "type": "bool"
        }
      ],
      "stateMutability": "nonpayable",
      "type": "function"
    },
    {
      "inputs": [
        {
          "internalType": "address",
          "name": "delegatee",
          "type": "address"
        }
      ],
      "name": "delegate",
      "outputs": [],
      "stateMutability": "nonpayable",
      "type": "function"
    },
    {
      "inputs": [
        {
          "internalType": "address",
          "name": "delegatee",
          "type": "address"
        },
        {
          "internalType": "uint256",
          "name": "nonce",
          "type": "uint256"
        },
        {
          "internalType": "uint256",
          "name": "expiry",
          "type": "uint256"
        },
        {
          "internalType": "uint8",
          "name": "v",
          "type": "uint8"
        },
        {
          "internalType": "bytes32",
          "name": "r",
          "type": "bytes32"
        },
        {
          "internalType": "bytes32",
          "name": "s",
          "type": "bytes32"
        }
      ],
      "name": "delegateBySig",
      "outputs": [],
      "stateMutability": "nonpayable",
      "type": "function"
    },
    {
      "inputs": [
        {
          "internalType": "address",
          "name": "account",
          "type": "address"
        }
      ],
      "name": "delegates",
      "outputs": [
        {
          "internalType": "address",
          "name": "",
          "type": "address"
        }
      ],
      "stateMutability": "view",
      "type": "function"
    },
    {
      "inputs": [
        {
          "internalType": "uint256",
          "name": "blockNumber",
          "type": "uint256"
        }
      ],
      "name": "getPastTotalSupply",
      "outputs": [
        {
          "internalType": "uint256",
          "name": "",
          "type": "uint256"
        }
      ],
      "stateMutability": "view",
      "type": "function"
    },
    {
      "inputs": [
        {
          "internalType": "address",
          "name": "account",
          "type": "address"
        },
        {
          "internalType": "uint256",
          "name": "blockNumber",
          "type": "uint256"
        }
      ],
      "name": "getPastVotes",
      "outputs": [
        {
          "internalType": "uint256",
          "name": "",
          "type": "uint256"
        }
      ],
      "stateMutability": "view",
      "type": "function"
    },
    {
      "inputs": [
        {
          "internalType": "bytes32",
          "name": "role",
          "type": "bytes32"
        }
      ],
      "name": "getRoleAdmin",
      "outputs": [
        {
          "internalType": "bytes32",
          "name": "",
          "type": "bytes32"
        }
      ],
      "stateMutability": "view",
      "type": "function"
    },
    {
      "inputs": [
        {
          "internalType": "address",
          "name": "account",
          "type": "address"
        }
      ],
      "name": "getVotes",
      "outputs": [
        {
          "internalType": "uint256",
          "name": "",
          "type": "uint256"
        }
      ],
      "stateMutability": "view",
      "type": "function"
    },
    {
      "inputs": [
        {
          "internalType": "bytes32",
          "name": "role",
          "type": "bytes32"
        },
        {
          "internalType": "address",
          "name": "account",
          "type": "address"
        }
      ],
      "name": "grantRole",
      "outputs": [],
      "stateMutability": "nonpayable",
      "type": "function"
    },
    {
      "inputs": [
        {
          "internalType": "bytes32",
          "name": "role",
          "type": "bytes32"
        },
        {
          "internalType": "address",
          "name": "account",
          "type": "address"
        }
      ],
      "name": "hasRole",
      "outputs": [
        {
          "internalType": "bool",
          "name": "",
          "type": "bool"
        }
      ],
      "stateMutability": "view",
      "type": "function"
    },
    {
      "inputs": [
        {
          "internalType": "address",
          "name": "spender",
          "type": "address"
        },
        {
          "internalType": "uint256",
          "name": "addedValue",
          "type": "uint256"
        }
      ],
      "name": "increaseAllowance",
      "outputs": [
        {
          "internalType": "bool",
          "name": "",
          "type": "bool"
        }
      ],
      "stateMutability": "nonpayable",
      "type": "function"
    },
    {
      "inputs": [
        {
          "internalType": "address",
          "name": "to",
          "type": "address"
        },
        {
          "internalType": "uint256",
          "name": "amount",
          "type": "uint256"
        }
      ],
      "name": "mint",
      "outputs": [],
      "stateMutability": "nonpayable",
      "type": "function"
    },
    {
      "inputs": [],
      "name": "name",
      "outputs": [
        {
          "internalType": "string",
          "name": "",
          "type": "string"
        }
      ],
      "stateMutability": "view",
      "type": "function"
    },
    {
      "inputs": [
        {
          "internalType": "address",
          "name": "owner",
          "type": "address"
        }
      ],
      "name": "nonces",
      "outputs": [
        {
          "internalType": "uint256",
          "name": "",
          "type": "uint256"
        }
      ],
      "stateMutability": "view",
      "type": "function"
    },
    {
      "inputs": [
        {
          "internalType": "address",
          "name": "account",
          "type": "address"
        }
      ],
      "name": "numCheckpoints",
      "outputs": [
        {
          "internalType": "uint32",
          "name": "",
          "type": "uint32"
        }
      ],
      "stateMutability": "view",
      "type": "function"
    },
    {
      "inputs": [
        {
          "internalType": "address",
          "name": "owner",
          "type": "address"
        },
        {
          "internalType": "address",
          "name": "spender",
          "type": "address"
        },
        {
          "internalType": "uint256",
          "name": "value",
          "type": "uint256"
        },
        {
          "internalType": "uint256",
          "name": "deadline",
          "type": "uint256"
        },
        {
          "internalType": "uint8",
          "name": "v",
          "type": "uint8"
        },
        {
          "internalType": "bytes32",
          "name": "r",
          "type": "bytes32"
        },
        {
          "internalType": "bytes32",
          "name": "s",
          "type": "bytes32"
        }
      ],
      "name": "permit",
      "outputs": [],
      "stateMutability": "nonpayable",
      "type": "function"
    },
    {
      "inputs": [
        {
          "internalType": "bytes32",
          "name": "role",
          "type": "bytes32"
        },
        {
          "internalType": "address",
          "name": "account",
          "type": "address"
        }
      ],
      "name": "renounceRole",
      "outputs": [],
      "stateMutability": "nonpayable",
      "type": "function"
    },
    {
      "inputs": [
        {
          "internalType": "bytes32",
          "name": "role",
          "type": "bytes32"
        },
        {
          "internalType": "address",
          "name": "account",
          "type": "address"
        }
      ],
      "name": "revokeRole",
      "outputs": [],
      "stateMutability": "nonpayable",
      "type": "function"
    },
    {
      "inputs": [
        {
          "internalType": "bytes4",
          "name": "interfaceId",
          "type": "bytes4"
        }
      ],
      "name": "supportsInterface",
      "outputs": [
        {
          "internalType": "bool",
          "name": "",
          "type": "bool"
        }
      ],
      "stateMutability": "view",
      "type": "function"
    },
    {
      "inputs": [],
      "name": "symbol",
      "outputs": [
        {
          "internalType": "string",
          "name": "",
          "type": "string"
        }
      ],
      "stateMutability": "view",
      "type": "function"
    },
    {
      "inputs": [],
      "name": "totalSupply",
      "outputs": [
        {
          "internalType": "uint256",
          "name": "",
          "type": "uint256"
        }
      ],
      "stateMutability": "view",
      "type": "function"
    },
    {
      "inputs": [
        {
          "internalType": "address",
          "name": "to",
          "type": "address"
        },
        {
          "internalType": "uint256",
          "name": "amount",
          "type": "uint256"
        }
      ],
      "name": "transfer",
      "outputs": [
        {
          "internalType": "bool",
          "name": "",
          "type": "bool"
        }
      ],
      "stateMutability": "nonpayable",
      "type": "function"
    },
    {
      "inputs": [
        {
          "internalType": "address",
          "name": "from",
          "type": "address"
        },
        {
          "internalType": "address",
          "name": "to",
          "type": "address"
        },
        {
          "internalType": "uint256",
          "name": "amount",
          "type": "uint256"
        }
      ],
      "name": "transferFrom",
      "outputs": [
        {
          "internalType": "bool",
          "name": "",
          "type": "bool"
        }
      ],
      "stateMutability": "nonpayable",
      "type": "function"
    }
  ],
  "bytecode": "0x6101406040523480156200001257600080fd5b506040518060400160405280600881526020017f473131546f6b656e000000000000000000000000000000000000000000000000815250806040518060400160405280600181526020017f31000000000000000000000000000000000000000000000000000000000000008152506040518060400160405280600881526020017f473131546f6b656e0000000000000000000000000000000000000000000000008152506040518060400160405280600381526020017f47313100000000000000000000000000000000000000000000000000000000008152508160039081620000fd919062000f9b565b5080600490816200010f919062000f9b565b50505060008280519060200120905060008280519060200120905060007f8b73c3c69bb8fe3d512ecc4cf759cc79239f7b179b0ffacaa9a75d522b39400f90508260e081815250508161010081815250504660a081815250506200017b8184846200025060201b60201c565b608081815250503073ffffffffffffffffffffffffffffffffffffffff1660c08173ffffffffffffffffffffffffffffffffffffffff16815250508061012081815250505050505050506200020333620001da6200028c60201b60201c565b600a620001e8919062001212565b6104b0620001f7919062001263565b6200029560201b60201c565b620002186000801b33620002b060201b60201c565b6200024a7f9f2df0fed2c77648de5860a4cc508cd0818c85b8b8a1ab4ceeef8d981c8956a633620002b060201b60201c565b620016b6565b600083838346306040516020016200026d9594939291906200131f565b6040516020818303038152906040528051906020012090509392505050565b60006012905090565b620002ac8282620003a260201b620012881760201c565b5050565b620002c282826200046060201b60201c565b6200039e5760016005600084815260200190815260200160002060000160008373ffffffffffffffffffffffffffffffffffffffff1673ffffffffffffffffffffffffffffffffffffffff16815260200190815260200160002060006101000a81548160ff02191690831515021790555062000343620004cb60201b60201c565b73ffffffffffffffffffffffffffffffffffffffff168173ffffffffffffffffffffffffffffffffffffffff16837f2f8788117e7eff1d82e926ec794901d17c78024a50270940304540a733656f0d60405160405180910390a45b5050565b620003b98282620004d360201b620013151760201c565b620003c96200064b60201b60201c565b7bffffffffffffffffffffffffffffffffffffffffffffffffffffffff16620003f76200066f60201b60201c565b11156200043b576040517f08c379a0000000000000000000000000000000000000000000000000000000008152600401620004329062001403565b60405180910390fd5b6200045a600a6200067960201b6200147417836200069160201b60201c565b50505050565b60006005600084815260200190815260200160002060000160008373ffffffffffffffffffffffffffffffffffffffff1673ffffffffffffffffffffffffffffffffffffffff16815260200190815260200160002060009054906101000a900460ff16905092915050565b600033905090565b600073ffffffffffffffffffffffffffffffffffffffff168273ffffffffffffffffffffffffffffffffffffffff160362000545576040517f08c379a00000000000000000000000000000000000000000000000000000000081526004016200053c9062001475565b60405180910390fd5b62000559600083836200094260201b60201c565b80600260008282546200056d919062001497565b92505081905550806000808473ffffffffffffffffffffffffffffffffffffffff1673ffffffffffffffffffffffffffffffffffffffff1681526020019081526020016000206000828254620005c4919062001497565b925050819055508173ffffffffffffffffffffffffffffffffffffffff16600073ffffffffffffffffffffffffffffffffffffffff167fddf252ad1be2c89b69c2b068fc378daa952ba7f163c4a11628f55a4df523b3ef836040516200062b9190620014d2565b60405180910390a362000647600083836200094760201b60201c565b5050565b60007bffffffffffffffffffffffffffffffffffffffffffffffffffffffff905090565b6000600254905090565b6000818362000689919062001497565b905092915050565b60008060008580549050905060008114620007065785600182620006b69190620014ef565b81548110620006ca57620006c96200152a565b5b9060005260206000200160000160049054906101000a90047bffffffffffffffffffffffffffffffffffffffffffffffffffffffff1662000709565b60005b7bffffffffffffffffffffffffffffffffffffffffffffffffffffffff1692506200073583858760201c565b91506000811180156200078e57504386600183620007549190620014ef565b815481106200076857620007676200152a565b5b9060005260206000200160000160009054906101000a900463ffffffff1663ffffffff16145b156200082f57620007aa826200096460201b6200148a1760201c565b86600183620007ba9190620014ef565b81548110620007ce57620007cd6200152a565b5b9060005260206000200160000160046101000a8154817bffffffffffffffffffffffffffffffffffffffffffffffffffffffff02191690837bffffffffffffffffffffffffffffffffffffffffffffffffffffffff16021790555062000939565b8560405180604001604052806200085143620009d260201b620014f51760201c565b63ffffffff16815260200162000872856200096460201b6200148a1760201c565b7bffffffffffffffffffffffffffffffffffffffffffffffffffffffff168152509080600181540180825580915050600190039060005260206000200160009091909190915060008201518160000160006101000a81548163ffffffff021916908363ffffffff16021790555060208201518160000160046101000a8154817bffffffffffffffffffffffffffffffffffffffffffffffffffffffff02191690837bffffffffffffffffffffffffffffffffffffffffffffffffffffffff16021790555050505b50935093915050565b505050565b6200095f83838362000a2860201b620015481760201c565b505050565b60007bffffffffffffffffffffffffffffffffffffffffffffffffffffffff8016821115620009ca576040517f08c379a0000000000000000000000000000000000000000000000000000000008152600401620009c190620015cf565b60405180910390fd5b819050919050565b600063ffffffff801682111562000a20576040517f08c379a000000000000000000000000000000000000000000000000000000000815260040162000a179062001667565b60405180910390fd5b819050919050565b62000a4083838362000a7860201b620015731760201c565b62000a7362000a558462000a7d60201b60201c565b62000a668462000a7d60201b60201c565b8362000ae660201b60201c565b505050565b505050565b6000600860008373ffffffffffffffffffffffffffffffffffffffff1673ffffffffffffffffffffffffffffffffffffffff16815260200190815260200160002060009054906101000a900473ffffffffffffffffffffffffffffffffffffffff169050919050565b8173ffffffffffffffffffffffffffffffffffffffff168373ffffffffffffffffffffffffffffffffffffffff161415801562000b235750600081115b1562000d0457600073ffffffffffffffffffffffffffffffffffffffff168373ffffffffffffffffffffffffffffffffffffffff161462000c165760008062000bbd600960008773ffffffffffffffffffffffffffffffffffffffff1673ffffffffffffffffffffffffffffffffffffffff16815260200190815260200160002062000d0960201b6200157817856200069160201b60201c565b915091508473ffffffffffffffffffffffffffffffffffffffff167fdec2bacdd2f05b59de34da9b523dff8be42e5e38e818c82fdb0bae774387a724838360405162000c0b92919062001689565b60405180910390a250505b600073ffffffffffffffffffffffffffffffffffffffff168273ffffffffffffffffffffffffffffffffffffffff161462000d035760008062000caa600960008673ffffffffffffffffffffffffffffffffffffffff1673ffffffffffffffffffffffffffffffffffffffff1681526020019081526020016000206200067960201b6200147417856200069160201b60201c565b915091508373ffffffffffffffffffffffffffffffffffffffff167fdec2bacdd2f05b59de34da9b523dff8be42e5e38e818c82fdb0bae774387a724838360405162000cf892919062001689565b60405180910390a250505b5b505050565b6000818362000d199190620014ef565b905092915050565b600081519050919050565b7f4e487b7100000000000000000000000000000000000000000000000000000000600052604160045260246000fd5b7f4e487b7100000000000000000000000000000000000000000000000000000000600052602260045260246000fd5b6000600282049050600182168062000da357607f821691505b60208210810362000db95762000db862000d5b565b5b50919050565b60008190508160005260206000209050919050565b60006020601f8301049050919050565b600082821b905092915050565b60006008830262000e237fffffffffffffffffffffffffffffffffffffffffffffffffffffffffffffffff8262000de4565b62000e2f868362000de4565b95508019841693508086168417925050509392505050565b6000819050919050565b6000819050919050565b600062000e7c62000e7662000e708462000e47565b62000e51565b62000e47565b9050919050565b6000819050919050565b62000e988362000e5b565b62000eb062000ea78262000e83565b84845462000df1565b825550505050565b600090565b62000ec762000eb8565b62000ed481848462000e8d565b505050565b5b8181101562000efc5762000ef060008262000ebd565b60018101905062000eda565b5050565b601f82111562000f4b5762000f158162000dbf565b62000f208462000dd4565b8101602085101562000f30578190505b62000f4862000f3f8562000dd4565b83018262000ed9565b50505b505050565b600082821c905092915050565b600062000f706000198460080262000f50565b1980831691505092915050565b600062000f8b838362000f5d565b9150826002028217905092915050565b62000fa68262000d21565b67ffffffffffffffff81111562000fc25762000fc162000d2c565b5b62000fce825462000d8a565b62000fdb82828562000f00565b600060209050601f83116001811462001013576000841562000ffe578287015190505b6200100a858262000f7d565b8655506200107a565b601f198416620010238662000dbf565b60005b828110156200104d5784890151825560018201915060208501945060208101905062001026565b868310156200106d578489015162001069601f89168262000f5d565b8355505b6001600288020188555050505b505050505050565b7f4e487b7100000000000000000000000000000000000000000000000000000000600052601160045260246000fd5b60008160011c9050919050565b6000808291508390505b60018511156200111057808604811115620010e857620010e762001082565b5b6001851615620010f85780820291505b80810290506200110885620010b1565b9450620010c8565b94509492505050565b6000826200112b5760019050620011fe565b816200113b5760009050620011fe565b81600181146200115457600281146200115f5762001195565b6001915050620011fe565b60ff84111562001174576200117362001082565b5b8360020a9150848211156200118e576200118d62001082565b5b50620011fe565b5060208310610133831016604e8410600b8410161715620011cf5782820a905083811115620011c957620011c862001082565b5b620011fe565b620011de8484846001620010be565b92509050818404811115620011f857620011f762001082565b5b81810290505b9392505050565b600060ff82169050919050565b60006200121f8262000e47565b91506200122c8362001205565b92506200125b7fffffffffffffffffffffffffffffffffffffffffffffffffffffffffffffffff848462001119565b905092915050565b6000620012708262000e47565b91506200127d8362000e47565b92508282026200128d8162000e47565b91508282048414831517620012a757620012a662001082565b5b5092915050565b6000819050919050565b620012c381620012ae565b82525050565b620012d48162000e47565b82525050565b600073ffffffffffffffffffffffffffffffffffffffff82169050919050565b60006200130782620012da565b9050919050565b6200131981620012fa565b82525050565b600060a082019050620013366000830188620012b8565b620013456020830187620012b8565b620013546040830186620012b8565b620013636060830185620012c9565b6200137260808301846200130e565b9695505050505050565b600082825260208201905092915050565b7f4552433230566f7465733a20746f74616c20737570706c79207269736b73206f60008201527f766572666c6f77696e6720766f74657300000000000000000000000000000000602082015250565b6000620013eb6030836200137c565b9150620013f8826200138d565b604082019050919050565b600060208201905081810360008301526200141e81620013dc565b9050919050565b7f45524332303a206d696e7420746f20746865207a65726f206164647265737300600082015250565b60006200145d601f836200137c565b91506200146a8262001425565b602082019050919050565b6000602082019050818103600083015262001490816200144e565b9050919050565b6000620014a48262000e47565b9150620014b18362000e47565b9250828201905080821115620014cc57620014cb62001082565b5b92915050565b6000602082019050620014e96000830184620012c9565b92915050565b6000620014fc8262000e47565b9150620015098362000e47565b925082820390508181111562001524576200152362001082565b5b92915050565b7f4e487b7100000000000000000000000000000000000000000000000000000000600052603260045260246000fd5b7f53616665436173743a2076616c756520646f65736e27742066697420696e203260008201527f3234206269747300000000000000000000000000000000000000000000000000602082015250565b6000620015b76027836200137c565b9150620015c48262001559565b604082019050919050565b60006020820190508181036000830152620015ea81620015a8565b9050919050565b7f53616665436173743a2076616c756520646f65736e27742066697420696e203360008201527f3220626974730000000000000000000000000000000000000000000000000000602082015250565b60006200164f6026836200137c565b91506200165c82620015f1565b604082019050919050565b60006020820190508181036000830152620016828162001640565b9050919050565b6000604082019050620016a06000830185620012c9565b620016af6020830184620012c9565b9392505050565b60805160a05160c05160e05161010051610120516143b6620017066000396000611c7701526000611cb901526000611c9801526000611bcd01526000611c2301526000611c4c01526143b66000f3fe608060405234801561001057600080fd5b50600436106101e55760003560e01c80636fcfff451161010f578063a457c2d7116100a2578063d539139311610071578063d539139314610616578063d547741f14610634578063dd62ed3e14610650578063f1127ed814610680576101e5565b8063a457c2d71461057e578063a9059cbb146105ae578063c3cda520146105de578063d505accf146105fa576101e5565b806391d14854116100de57806391d14854146104e257806395d89b41146105125780639ab24eb014610530578063a217fddf14610560576101e5565b80636fcfff451461042257806370a08231146104525780637ecebe00146104825780638e539e8c146104b2576101e5565b8063313ce567116101875780633a46b1a8116101565780633a46b1a81461038a57806340c10f19146103ba578063587cde1e146103d65780635c19a95c14610406576101e5565b8063313ce567146103025780633644e5151461032057806336568abe1461033e578063395093511461035a576101e5565b806318160ddd116101c357806318160ddd1461026857806323b872dd14610286578063248a9ca3146102b65780632f2ff15d146102e6576101e5565b806301ffc9a7146101ea57806306fdde031461021a578063095ea7b314610238575b600080fd5b61020460048036038101906101ff9190612c49565b6106b0565b6040516102119190612c91565b60405180910390f35b61022261072a565b60405161022f9190612d3c565b60405180910390f35b610252600480360381019061024d9190612df2565b6107bc565b60405161025f9190612c91565b60405180910390f35b6102706107df565b60405161027d9190612e41565b60405180910390f35b6102a0600480360381019061029b9190612e5c565b6107e9565b6040516102ad9190612c91565b60405180910390f35b6102d060048036038101906102cb9190612ee5565b610818565b6040516102dd9190612f21565b60405180910390f35b61030060048036038101906102fb9190612f3c565b610838565b005b61030a610859565b6040516103179190612f98565b60405180910390f35b610328610862565b6040516103359190612f21565b60405180910390f35b61035860048036038101906103539190612f3c565b610871565b005b610374600480360381019061036f9190612df2565b6108f4565b6040516103819190612c91565b60405180910390f35b6103a4600480360381019061039f9190612df2565b61092b565b6040516103b19190612e41565b60405180910390f35b6103d460048036038101906103cf9190612df2565b6109bf565b005b6103f060048036038101906103eb9190612fb3565b6109f8565b6040516103fd9190612fef565b60405180910390f35b610420600480360381019061041b9190612fb3565b610a61565b005b61043c60048036038101906104379190612fb3565b610a75565b6040516104499190613029565b60405180910390f35b61046c60048036038101906104679190612fb3565b610ac9565b6040516104799190612e41565b60405180910390f35b61049c60048036038101906104979190612fb3565b610b11565b6040516104a99190612e41565b60405180910390f35b6104cc60048036038101906104c79190613044565b610b61565b6040516104d99190612e41565b60405180910390f35b6104fc60048036038101906104f79190612f3c565b610bb7565b6040516105099190612c91565b60405180910390f35b61051a610c22565b6040516105279190612d3c565b60405180910390f35b61054a60048036038101906105459190612fb3565b610cb4565b6040516105579190612e41565b60405180910390f35b610568610dc5565b6040516105759190612f21565b60405180910390f35b61059860048036038101906105939190612df2565b610dcc565b6040516105a59190612c91565b60405180910390f35b6105c860048036038101906105c39190612df2565b610e43565b6040516105d59190612c91565b60405180910390f35b6105f860048036038101906105f3919061309d565b610e66565b005b610614600480360381019061060f919061312a565b610f6a565b005b61061e6110ac565b60405161062b9190612f21565b60405180910390f35b61064e60048036038101906106499190612f3c565b6110d0565b005b61066a600480360381019061066591906131cc565b6110f1565b6040516106779190612e41565b60405180910390f35b61069a60048036038101906106959190613238565b611178565b6040516106a791906132ed565b60405180910390f35b60007f7965db0b000000000000000000000000000000000000000000000000000000007bffffffffffffffffffffffffffffffffffffffffffffffffffffffff1916827bffffffffffffffffffffffffffffffffffffffffffffffffffffffff1916148061072357506107228261158e565b5b9050919050565b60606003805461073990613337565b80601f016020809104026020016040519081016040528092919081815260200182805461076590613337565b80156107b25780601f10610787576101008083540402835291602001916107b2565b820191906000526020600020905b81548152906001019060200180831161079557829003601f168201915b5050505050905090565b6000806107c76115f8565b90506107d4818585611600565b600191505092915050565b6000600254905090565b6000806107f46115f8565b90506108018582856117c9565b61080c858585611855565b60019150509392505050565b600060056000838152602001908152602001600020600101549050919050565b61084182610818565b61084a81611ad4565b6108548383611ae8565b505050565b60006012905090565b600061086c611bc9565b905090565b6108796115f8565b73ffffffffffffffffffffffffffffffffffffffff168173ffffffffffffffffffffffffffffffffffffffff16146108e6576040517f08c379a00000000000000000000000000000000000000000000000000000000081526004016108dd906133da565b60405180910390fd5b6108f08282611ce3565b5050565b6000806108ff6115f8565b905061092081858561091185896110f1565b61091b9190613429565b611600565b600191505092915050565b600043821061096f576040517f08c379a0000000000000000000000000000000000000000000000000000000008152600401610966906134a9565b60405180910390fd5b6109b7600960008573ffffffffffffffffffffffffffffffffffffffff1673ffffffffffffffffffffffffffffffffffffffff16815260200190815260200160002083611dc5565b905092915050565b7f9f2df0fed2c77648de5860a4cc508cd0818c85b8b8a1ab4ceeef8d981c8956a66109e981611ad4565b6109f38383611ed1565b505050565b6000600860008373ffffffffffffffffffffffffffffffffffffffff1673ffffffffffffffffffffffffffffffffffffffff16815260200190815260200160002060009054906101000a900473ffffffffffffffffffffffffffffffffffffffff169050919050565b610a72610a6c6115f8565b82611edf565b50565b6000610ac2600960008473ffffffffffffffffffffffffffffffffffffffff1673ffffffffffffffffffffffffffffffffffffffff168152602001908152602001600020805490506114f5565b9050919050565b60008060008373ffffffffffffffffffffffffffffffffffffffff1673ffffffffffffffffffffffffffffffffffffffff168152602001908152602001600020549050919050565b6000610b5a600660008473ffffffffffffffffffffffffffffffffffffffff1673ffffffffffffffffffffffffffffffffffffffff168152602001908152602001600020611ff9565b9050919050565b6000438210610ba5576040517f08c379a0000000000000000000000000000000000000000000000000000000008152600401610b9c906134a9565b60405180910390fd5b610bb0600a83611dc5565b9050919050565b60006005600084815260200190815260200160002060000160008373ffffffffffffffffffffffffffffffffffffffff1673ffffffffffffffffffffffffffffffffffffffff16815260200190815260200160002060009054906101000a900460ff16905092915050565b606060048054610c3190613337565b80601f0160208091040260200160405190810160405280929190818152602001828054610c5d90613337565b8015610caa5780601f10610c7f57610100808354040283529160200191610caa565b820191906000526020600020905b815481529060010190602001808311610c8d57829003601f168201915b5050505050905090565b600080600960008473ffffffffffffffffffffffffffffffffffffffff1673ffffffffffffffffffffffffffffffffffffffff16815260200190815260200160002080549050905060008114610d9c57600960008473ffffffffffffffffffffffffffffffffffffffff1673ffffffffffffffffffffffffffffffffffffffff168152602001908152602001600020600182610d5091906134c9565b81548110610d6157610d606134fd565b5b9060005260206000200160000160049054906101000a90047bffffffffffffffffffffffffffffffffffffffffffffffffffffffff16610d9f565b60005b7bffffffffffffffffffffffffffffffffffffffffffffffffffffffff16915050919050565b6000801b81565b600080610dd76115f8565b90506000610de582866110f1565b905083811015610e2a576040517f08c379a0000000000000000000000000000000000000000000000000000000008152600401610e219061359e565b60405180910390fd5b610e378286868403611600565b60019250505092915050565b600080610e4e6115f8565b9050610e5b818585611855565b600191505092915050565b83421115610ea9576040517f08c379a0000000000000000000000000000000000000000000000000000000008152600401610ea09061360a565b60405180910390fd5b6000610f0b610f037fe48329057bfd03d55e49b547132e39cffd9c1820ad7b9d4c5307691425d15adf898989604051602001610ee8949392919061362a565b60405160208183030381529060405280519060200120612007565b858585612021565b9050610f168161204c565b8614610f57576040517f08c379a0000000000000000000000000000000000000000000000000000000008152600401610f4e906136bb565b60405180910390fd5b610f618188611edf565b50505050505050565b83421115610fad576040517f08c379a0000000000000000000000000000000000000000000000000000000008152600401610fa490613727565b60405180910390fd5b60007f6e71edae12b1b97f4d1f60370fef10105fa2faae0126114a169c64845d6126c9888888610fdc8c61204c565b89604051602001610ff296959493929190613747565b604051602081830303815290604052805190602001209050600061101582612007565b9050600061102582878787612021565b90508973ffffffffffffffffffffffffffffffffffffffff168173ffffffffffffffffffffffffffffffffffffffff1614611095576040517f08c379a000000000000000000000000000000000000000000000000000000000815260040161108c906137f4565b60405180910390fd5b6110a08a8a8a611600565b50505050505050505050565b7f9f2df0fed2c77648de5860a4cc508cd0818c85b8b8a1ab4ceeef8d981c8956a681565b6110d982610818565b6110e281611ad4565b6110ec8383611ce3565b505050565b6000600160008473ffffffffffffffffffffffffffffffffffffffff1673ffffffffffffffffffffffffffffffffffffffff16815260200190815260200160002060008373ffffffffffffffffffffffffffffffffffffffff1673ffffffffffffffffffffffffffffffffffffffff16815260200190815260200160002054905092915050565b611180612bae565b600960008473ffffffffffffffffffffffffffffffffffffffff1673ffffffffffffffffffffffffffffffffffffffff1681526020019081526020016000208263ffffffff16815481106111d7576111d66134fd565b5b906000526020600020016040518060400160405290816000820160009054906101000a900463ffffffff1663ffffffff1663ffffffff1681526020016000820160049054906101000a90047bffffffffffffffffffffffffffffffffffffffffffffffffffffffff167bffffffffffffffffffffffffffffffffffffffffffffffffffffffff167bffffffffffffffffffffffffffffffffffffffffffffffffffffffff1681525050905092915050565b6112928282611315565b61129a6120aa565b7bffffffffffffffffffffffffffffffffffffffffffffffffffffffff166112c06107df565b1115611301576040517f08c379a00000000000000000000000000000000000000000000000000000000081526004016112f890613886565b60405180910390fd5b61130f600a611474836120ce565b50505050565b600073ffffffffffffffffffffffffffffffffffffffff168273ffffffffffffffffffffffffffffffffffffffff1603611384576040517f08c379a000000000000000000000000000000000000000000000000000000000815260040161137b906138f2565b60405180910390fd5b61139060008383612346565b80600260008282546113a29190613429565b92505081905550806000808473ffffffffffffffffffffffffffffffffffffffff1673ffffffffffffffffffffffffffffffffffffffff16815260200190815260200160002060008282546113f79190613429565b925050819055508173ffffffffffffffffffffffffffffffffffffffff16600073ffffffffffffffffffffffffffffffffffffffff167fddf252ad1be2c89b69c2b068fc378daa952ba7f163c4a11628f55a4df523b3ef8360405161145c9190612e41565b60405180910390a36114706000838361234b565b5050565b600081836114829190613429565b905092915050565b60007bffffffffffffffffffffffffffffffffffffffffffffffffffffffff80168211156114ed576040517f08c379a00000000000000000000000000000000000000000000000000000000081526004016114e490613984565b60405180910390fd5b819050919050565b600063ffffffff8016821115611540576040517f08c379a000000000000000000000000000000000000000000000000000000000815260040161153790613a16565b60405180910390fd5b819050919050565b611553838383611573565b61156e61155f846109f8565b611568846109f8565b8361235b565b505050565b505050565b6000818361158691906134c9565b905092915050565b60007f01ffc9a7000000000000000000000000000000000000000000000000000000007bffffffffffffffffffffffffffffffffffffffffffffffffffffffff1916827bffffffffffffffffffffffffffffffffffffffffffffffffffffffff1916149050919050565b600033905090565b600073ffffffffffffffffffffffffffffffffffffffff168373ffffffffffffffffffffffffffffffffffffffff160361166f576040517f08c379a000000000000000000000000000000000000000000000000000000000815260040161166690613aa8565b60405180910390fd5b600073ffffffffffffffffffffffffffffffffffffffff168273ffffffffffffffffffffffffffffffffffffffff16036116de576040517f08c379a00000000000000000000000000000000000000000000000000000000081526004016116d590613b3a565b60405180910390fd5b80600160008573ffffffffffffffffffffffffffffffffffffffff1673ffffffffffffffffffffffffffffffffffffffff16815260200190815260200160002060008473ffffffffffffffffffffffffffffffffffffffff1673ffffffffffffffffffffffffffffffffffffffff168152602001908152602001600020819055508173ffffffffffffffffffffffffffffffffffffffff168373ffffffffffffffffffffffffffffffffffffffff167f8c5be1e5ebec7d5bd14f71427d1e84f3dd0314c0f7b2291e5b200ac8c7c3b925836040516117bc9190612e41565b60405180910390a3505050565b60006117d584846110f1565b90507fffffffffffffffffffffffffffffffffffffffffffffffffffffffffffffffff811461184f5781811015611841576040517f08c379a000000000000000000000000000000000000000000000000000000000815260040161183890613ba6565b60405180910390fd5b61184e8484848403611600565b5b50505050565b600073ffffffffffffffffffffffffffffffffffffffff168373ffffffffffffffffffffffffffffffffffffffff16036118c4576040517f08c379a00000000000000000000000000000000000000000000000000000000081526004016118bb90613c38565b60405180910390fd5b600073ffffffffffffffffffffffffffffffffffffffff168273ffffffffffffffffffffffffffffffffffffffff1603611933576040517f08c379a000000000000000000000000000000000000000000000000000000000815260040161192a90613cca565b60405180910390fd5b61193e838383612346565b60008060008573ffffffffffffffffffffffffffffffffffffffff1673ffffffffffffffffffffffffffffffffffffffff168152602001908152602001600020549050818110156119c4576040517f08c379a00000000000000000000000000000000000000000000000000000000081526004016119bb90613d5c565b60405180910390fd5b8181036000808673ffffffffffffffffffffffffffffffffffffffff1673ffffffffffffffffffffffffffffffffffffffff16815260200190815260200160002081905550816000808573ffffffffffffffffffffffffffffffffffffffff1673ffffffffffffffffffffffffffffffffffffffff1681526020019081526020016000206000828254611a579190613429565b925050819055508273ffffffffffffffffffffffffffffffffffffffff168473ffffffffffffffffffffffffffffffffffffffff167fddf252ad1be2c89b69c2b068fc378daa952ba7f163c4a11628f55a4df523b3ef84604051611abb9190612e41565b60405180910390a3611ace84848461234b565b50505050565b611ae581611ae06115f8565b612554565b50565b611af28282610bb7565b611bc55760016005600084815260200190815260200160002060000160008373ffffffffffffffffffffffffffffffffffffffff1673ffffffffffffffffffffffffffffffffffffffff16815260200190815260200160002060006101000a81548160ff021916908315150217905550611b6a6115f8565b73ffffffffffffffffffffffffffffffffffffffff168173ffffffffffffffffffffffffffffffffffffffff16837f2f8788117e7eff1d82e926ec794901d17c78024a50270940304540a733656f0d60405160405180910390a45b5050565b60007f000000000000000000000000000000000000000000000000000000000000000073ffffffffffffffffffffffffffffffffffffffff163073ffffffffffffffffffffffffffffffffffffffff16148015611c4557507f000000000000000000000000000000000000000000000000000000000000000046145b15611c72577f00000000000000000000000000000000000000000000000000000000000000009050611ce0565b611cdd7f00000000000000000000000000000000000000000000000000000000000000007f00000000000000000000000000000000000000000000000000000000000000007f00000000000000000000000000000000000000000000000000000000000000006125f1565b90505b90565b611ced8282610bb7565b15611dc15760006005600084815260200190815260200160002060000160008373ffffffffffffffffffffffffffffffffffffffff1673ffffffffffffffffffffffffffffffffffffffff16815260200190815260200160002060006101000a81548160ff021916908315150217905550611d666115f8565b73ffffffffffffffffffffffffffffffffffffffff168173ffffffffffffffffffffffffffffffffffffffff16837ff6391f5c32d9c69d2a47ea670b442974b53935d1edc7fd64eb21e047a839171b60405160405180910390a45b5050565b6000808380549050905060005b81811015611e44576000611de6828461262b565b905084868281548110611dfc57611dfb6134fd565b5b9060005260206000200160000160009054906101000a900463ffffffff1663ffffffff161115611e2e57809250611e3e565b600181611e3b9190613429565b91505b50611dd2565b60008214611ea65784600183611e5a91906134c9565b81548110611e6b57611e6a6134fd565b5b9060005260206000200160000160049054906101000a90047bffffffffffffffffffffffffffffffffffffffffffffffffffffffff16611ea9565b60005b7bffffffffffffffffffffffffffffffffffffffffffffffffffffffff169250505092915050565b611edb8282611288565b5050565b6000611eea836109f8565b90506000611ef784610ac9565b905082600860008673ffffffffffffffffffffffffffffffffffffffff1673ffffffffffffffffffffffffffffffffffffffff16815260200190815260200160002060006101000a81548173ffffffffffffffffffffffffffffffffffffffff021916908373ffffffffffffffffffffffffffffffffffffffff1602179055508273ffffffffffffffffffffffffffffffffffffffff168273ffffffffffffffffffffffffffffffffffffffff168573ffffffffffffffffffffffffffffffffffffffff167f3134e8a2e6d97e929a7e54011ea5485d7d196dd5f0ba4d4ef95803e8e3fc257f60405160405180910390a4611ff382848361235b565b50505050565b600081600001549050919050565b600061201a612014611bc9565b83612651565b9050919050565b600080600061203287878787612684565b9150915061203f81612790565b8192505050949350505050565b600080600660008473ffffffffffffffffffffffffffffffffffffffff1673ffffffffffffffffffffffffffffffffffffffff168152602001908152602001600020905061209981611ff9565b91506120a48161295c565b50919050565b60007bffffffffffffffffffffffffffffffffffffffffffffffffffffffff905090565b6000806000858054905090506000811461213c57856001826120f091906134c9565b81548110612101576121006134fd565b5b9060005260206000200160000160049054906101000a90047bffffffffffffffffffffffffffffffffffffffffffffffffffffffff1661213f565b60005b7bffffffffffffffffffffffffffffffffffffffffffffffffffffffff16925061216d83858763ffffffff16565b91506000811180156121c05750438660018361218991906134c9565b8154811061219a576121996134fd565b5b9060005260206000200160000160009054906101000a900463ffffffff1663ffffffff16145b1561224d576121ce8261148a565b866001836121dc91906134c9565b815481106121ed576121ec6134fd565b5b9060005260206000200160000160046101000a8154817bffffffffffffffffffffffffffffffffffffffffffffffffffffffff02191690837bffffffffffffffffffffffffffffffffffffffffffffffffffffffff16021790555061233d565b856040518060400160405280612262436114f5565b63ffffffff1681526020016122768561148a565b7bffffffffffffffffffffffffffffffffffffffffffffffffffffffff168152509080600181540180825580915050600190039060005260206000200160009091909190915060008201518160000160006101000a81548163ffffffff021916908363ffffffff16021790555060208201518160000160046101000a8154817bffffffffffffffffffffffffffffffffffffffffffffffffffffffff02191690837bffffffffffffffffffffffffffffffffffffffffffffffffffffffff16021790555050505b50935093915050565b505050565b612356838383611548565b505050565b8173ffffffffffffffffffffffffffffffffffffffff168373ffffffffffffffffffffffffffffffffffffffff16141580156123975750600081115b1561254f57600073ffffffffffffffffffffffffffffffffffffffff168373ffffffffffffffffffffffffffffffffffffffff16146124755760008061241e600960008773ffffffffffffffffffffffffffffffffffffffff1673ffffffffffffffffffffffffffffffffffffffff168152602001908152602001600020611578856120ce565b915091508473ffffffffffffffffffffffffffffffffffffffff167fdec2bacdd2f05b59de34da9b523dff8be42e5e38e818c82fdb0bae774387a724838360405161246a929190613d7c565b60405180910390a250505b600073ffffffffffffffffffffffffffffffffffffffff168273ffffffffffffffffffffffffffffffffffffffff161461254e576000806124f7600960008673ffffffffffffffffffffffffffffffffffffffff1673ffffffffffffffffffffffffffffffffffffffff168152602001908152602001600020611474856120ce565b915091508373ffffffffffffffffffffffffffffffffffffffff167fdec2bacdd2f05b59de34da9b523dff8be42e5e38e818c82fdb0bae774387a7248383604051612543929190613d7c565b60405180910390a250505b5b505050565b61255e8282610bb7565b6125ed576125838173ffffffffffffffffffffffffffffffffffffffff166014612972565b6125918360001c6020612972565b6040516020016125a2929190613e79565b6040516020818303038152906040526040517f08c379a00000000000000000000000000000000000000000000000000000000081526004016125e49190612d3c565b60405180910390fd5b5050565b6000838383463060405160200161260c959493929190613eb3565b6040516020818303038152906040528051906020012090509392505050565b6000600282841861263c9190613f35565b8284166126499190613429565b905092915050565b60008282604051602001612666929190613fd3565b60405160208183030381529060405280519060200120905092915050565b6000807f7fffffffffffffffffffffffffffffff5d576e7357a4501ddfe92f46681b20a08360001c11156126bf576000600391509150612787565b601b8560ff16141580156126d75750601c8560ff1614155b156126e9576000600491509150612787565b60006001878787876040516000815260200160405260405161270e949392919061400a565b6020604051602081039080840390855afa158015612730573d6000803e3d6000fd5b505050602060405103519050600073ffffffffffffffffffffffffffffffffffffffff168173ffffffffffffffffffffffffffffffffffffffff160361277e57600060019250925050612787565b80600092509250505b94509492505050565b600060048111156127a4576127a361404f565b5b8160048111156127b7576127b661404f565b5b031561295957600160048111156127d1576127d061404f565b5b8160048111156127e4576127e361404f565b5b03612824576040517f08c379a000000000000000000000000000000000000000000000000000000000815260040161281b906140ca565b60405180910390fd5b600260048111156128385761283761404f565b5b81600481111561284b5761284a61404f565b5b0361288b576040517f08c379a000000000000000000000000000000000000000000000000000000000815260040161288290614136565b60405180910390fd5b6003600481111561289f5761289e61404f565b5b8160048111156128b2576128b161404f565b5b036128f2576040517f08c379a00000000000000000000000000000000000000000000000000000000081526004016128e9906141c8565b60405180910390fd5b6004808111156129055761290461404f565b5b8160048111156129185761291761404f565b5b03612958576040517f08c379a000000000000000000000000000000000000000000000000000000000815260040161294f9061425a565b60405180910390fd5b5b50565b6001816000016000828254019250508190555050565b606060006002836002612985919061427a565b61298f9190613429565b67ffffffffffffffff8111156129a8576129a76142bc565b5b6040519080825280601f01601f1916602001820160405280156129da5781602001600182028036833780820191505090505b5090507f300000000000000000000000000000000000000000000000000000000000000081600081518110612a1257612a116134fd565b5b60200101907effffffffffffffffffffffffffffffffffffffffffffffffffffffffffffff1916908160001a9053507f780000000000000000000000000000000000000000000000000000000000000081600181518110612a7657612a756134fd565b5b60200101907effffffffffffffffffffffffffffffffffffffffffffffffffffffffffffff1916908160001a90535060006001846002612ab6919061427a565b612ac09190613429565b90505b6001811115612b60577f3031323334353637383961626364656600000000000000000000000000000000600f861660108110612b0257612b016134fd565b5b1a60f81b828281518110612b1957612b186134fd565b5b60200101907effffffffffffffffffffffffffffffffffffffffffffffffffffffffffffff1916908160001a905350600485901c945080612b59906142eb565b9050612ac3565b5060008414612ba4576040517f08c379a0000000000000000000000000000000000000000000000000000000008152600401612b9b90614360565b60405180910390fd5b8091505092915050565b6040518060400160405280600063ffffffff16815260200160007bffffffffffffffffffffffffffffffffffffffffffffffffffffffff1681525090565b600080fd5b60007fffffffff0000000000000000000000000000000000000000000000000000000082169050919050565b612c2681612bf1565b8114612c3157600080fd5b50565b600081359050612c4381612c1d565b92915050565b600060208284031215612c5f57612c5e612bec565b5b6000612c6d84828501612c34565b91505092915050565b60008115159050919050565b612c8b81612c76565b82525050565b6000602082019050612ca66000830184612c82565b92915050565b600081519050919050565b600082825260208201905092915050565b60005b83811015612ce6578082015181840152602081019050612ccb565b60008484015250505050565b6000601f19601f8301169050919050565b6000612d0e82612cac565b612d188185612cb7565b9350612d28818560208601612cc8565b612d3181612cf2565b840191505092915050565b60006020820190508181036000830152612d568184612d03565b905092915050565b600073ffffffffffffffffffffffffffffffffffffffff82169050919050565b6000612d8982612d5e565b9050919050565b612d9981612d7e565b8114612da457600080fd5b50565b600081359050612db681612d90565b92915050565b6000819050919050565b612dcf81612dbc565b8114612dda57600080fd5b50565b600081359050612dec81612dc6565b92915050565b60008060408385031215612e0957612e08612bec565b5b6000612e1785828601612da7565b9250506020612e2885828601612ddd565b9150509250929050565b612e3b81612dbc565b82525050565b6000602082019050612e566000830184612e32565b92915050565b600080600060608486031215612e7557612e74612bec565b5b6000612e8386828701612da7565b9350506020612e9486828701612da7565b9250506040612ea586828701612ddd565b9150509250925092565b6000819050919050565b612ec281612eaf565b8114612ecd57600080fd5b50565b600081359050612edf81612eb9565b92915050565b600060208284031215612efb57612efa612bec565b5b6000612f0984828501612ed0565b91505092915050565b612f1b81612eaf565b82525050565b6000602082019050612f366000830184612f12565b92915050565b60008060408385031215612f5357612f52612bec565b5b6000612f6185828601612ed0565b9250506020612f7285828601612da7565b9150509250929050565b600060ff82169050919050565b612f9281612f7c565b82525050565b6000602082019050612fad6000830184612f89565b92915050565b600060208284031215612fc957612fc8612bec565b5b6000612fd784828501612da7565b91505092915050565b612fe981612d7e565b82525050565b60006020820190506130046000830184612fe0565b92915050565b600063ffffffff82169050919050565b6130238161300a565b82525050565b600060208201905061303e600083018461301a565b92915050565b60006020828403121561305a57613059612bec565b5b600061306884828501612ddd565b91505092915050565b61307a81612f7c565b811461308557600080fd5b50565b60008135905061309781613071565b92915050565b60008060008060008060c087890312156130ba576130b9612bec565b5b60006130c889828a01612da7565b96505060206130d989828a01612ddd565b95505060406130ea89828a01612ddd565b94505060606130fb89828a01613088565b935050608061310c89828a01612ed0565b92505060a061311d89828a01612ed0565b9150509295509295509295565b600080600080600080600060e0888a03121561314957613148612bec565b5b60006131578a828b01612da7565b97505060206131688a828b01612da7565b96505060406131798a828b01612ddd565b955050606061318a8a828b01612ddd565b945050608061319b8a828b01613088565b93505060a06131ac8a828b01612ed0565b92505060c06131bd8a828b01612ed0565b91505092959891949750929550565b600080604083850312156131e3576131e2612bec565b5b60006131f185828601612da7565b925050602061320285828601612da7565b9150509250929050565b6132158161300a565b811461322057600080fd5b50565b6000813590506132328161320c565b92915050565b6000806040838503121561324f5761324e612bec565b5b600061325d85828601612da7565b925050602061326e85828601613223565b9150509250929050565b6132818161300a565b82525050565b60007bffffffffffffffffffffffffffffffffffffffffffffffffffffffff82169050919050565b6132b881613287565b82525050565b6040820160008201516132d46000850182613278565b5060208201516132e760208501826132af565b50505050565b600060408201905061330260008301846132be565b92915050565b7f4e487b7100000000000000000000000000000000000000000000000000000000600052602260045260246000fd5b6000600282049050600182168061334f57607f821691505b60208210810361336257613361613308565b5b50919050565b7f416363657373436f6e74726f6c3a2063616e206f6e6c792072656e6f756e636560008201527f20726f6c657320666f722073656c660000000000000000000000000000000000602082015250565b60006133c4602f83612cb7565b91506133cf82613368565b604082019050919050565b600060208201905081810360008301526133f3816133b7565b9050919050565b7f4e487b7100000000000000000000000000000000000000000000000000000000600052601160045260246000fd5b600061343482612dbc565b915061343f83612dbc565b9250828201905080821115613457576134566133fa565b5b92915050565b7f4552433230566f7465733a20626c6f636b206e6f7420796574206d696e656400600082015250565b6000613493601f83612cb7565b915061349e8261345d565b602082019050919050565b600060208201905081810360008301526134c281613486565b9050919050565b60006134d482612dbc565b91506134df83612dbc565b92508282039050818111156134f7576134f66133fa565b5b92915050565b7f4e487b7100000000000000000000000000000000000000000000000000000000600052603260045260246000fd5b7f45524332303a2064656372656173656420616c6c6f77616e63652062656c6f7760008201527f207a65726f000000000000000000000000000000000000000000000000000000602082015250565b6000613588602583612cb7565b91506135938261352c565b604082019050919050565b600060208201905081810360008301526135b78161357b565b9050919050565b7f4552433230566f7465733a207369676e61747572652065787069726564000000600082015250565b60006135f4601d83612cb7565b91506135ff826135be565b602082019050919050565b60006020820190508181036000830152613623816135e7565b9050919050565b600060808201905061363f6000830187612f12565b61364c6020830186612fe0565b6136596040830185612e32565b6136666060830184612e32565b95945050505050565b7f4552433230566f7465733a20696e76616c6964206e6f6e636500000000000000600082015250565b60006136a5601983612cb7565b91506136b08261366f565b602082019050919050565b600060208201905081810360008301526136d481613698565b9050919050565b7f45524332305065726d69743a206578706972656420646561646c696e65000000600082015250565b6000613711601d83612cb7565b915061371c826136db565b602082019050919050565b6000602082019050818103600083015261374081613704565b9050919050565b600060c08201905061375c6000830189612f12565b6137696020830188612fe0565b6137766040830187612fe0565b6137836060830186612e32565b6137906080830185612e32565b61379d60a0830184612e32565b979650505050505050565b7f45524332305065726d69743a20696e76616c6964207369676e61747572650000600082015250565b60006137de601e83612cb7565b91506137e9826137a8565b602082019050919050565b6000602082019050818103600083015261380d816137d1565b9050919050565b7f4552433230566f7465733a20746f74616c20737570706c79207269736b73206f60008201527f766572666c6f77696e6720766f74657300000000000000000000000000000000602082015250565b6000613870603083612cb7565b915061387b82613814565b604082019050919050565b6000602082019050818103600083015261389f81613863565b9050919050565b7f45524332303a206d696e7420746f20746865207a65726f206164647265737300600082015250565b60006138dc601f83612cb7565b91506138e7826138a6565b602082019050919050565b6000602082019050818103600083015261390b816138cf565b9050919050565b7f53616665436173743a2076616c756520646f65736e27742066697420696e203260008201527f3234206269747300000000000000000000000000000000000000000000000000602082015250565b600061396e602783612cb7565b915061397982613912565b604082019050919050565b6000602082019050818103600083015261399d81613961565b9050919050565b7f53616665436173743a2076616c756520646f65736e27742066697420696e203360008201527f3220626974730000000000000000000000000000000000000000000000000000602082015250565b6000613a00602683612cb7565b9150613a0b826139a4565b604082019050919050565b60006020820190508181036000830152613a2f816139f3565b9050919050565b7f45524332303a20617070726f76652066726f6d20746865207a65726f2061646460008201527f7265737300000000000000000000000000000000000000000000000000000000602082015250565b6000613a92602483612cb7565b9150613a9d82613a36565b604082019050919050565b60006020820190508181036000830152613ac181613a85565b9050919050565b7f45524332303a20617070726f766520746f20746865207a65726f20616464726560008201527f7373000000000000000000000000000000000000000000000000000000000000602082015250565b6000613b24602283612cb7565b9150613b2f82613ac8565b604082019050919050565b60006020820190508181036000830152613b5381613b17565b9050919050565b7f45524332303a20696e73756666696369656e7420616c6c6f77616e6365000000600082015250565b6000613b90601d83612cb7565b9150613b9b82613b5a565b602082019050919050565b60006020820190508181036000830152613bbf81613b83565b9050919050565b7f45524332303a207472616e736665722066726f6d20746865207a65726f20616460008201527f6472657373000000000000000000000000000000000000000000000000000000602082015250565b6000613c22602583612cb7565b9150613c2d82613bc6565b604082019050919050565b60006020820190508181036000830152613c5181613c15565b9050919050565b7f45524332303a207472616e7366657220746f20746865207a65726f206164647260008201527f6573730000000000000000000000000000000000000000000000000000000000602082015250565b6000613cb4602383612cb7565b9150613cbf82613c58565b604082019050919050565b60006020820190508181036000830152613ce381613ca7565b9050919050565b7f45524332303a207472616e7366657220616d6f756e742065786365656473206260008201527f616c616e63650000000000000000000000000000000000000000000000000000602082015250565b6000613d46602683612cb7565b9150613d5182613cea565b604082019050919050565b60006020820190508181036000830152613d7581613d39565b9050919050565b6000604082019050613d916000830185612e32565b613d9e6020830184612e32565b9392505050565b600081905092915050565b7f416363657373436f6e74726f6c3a206163636f756e7420000000000000000000600082015250565b6000613de6601783613da5565b9150613df182613db0565b601782019050919050565b6000613e0782612cac565b613e118185613da5565b9350613e21818560208601612cc8565b80840191505092915050565b7f206973206d697373696e6720726f6c6520000000000000000000000000000000600082015250565b6000613e63601183613da5565b9150613e6e82613e2d565b601182019050919050565b6000613e8482613dd9565b9150613e908285613dfc565b9150613e9b82613e56565b9150613ea78284613dfc565b91508190509392505050565b600060a082019050613ec86000830188612f12565b613ed56020830187612f12565b613ee26040830186612f12565b613eef6060830185612e32565b613efc6080830184612fe0565b9695505050505050565b7f4e487b7100000000000000000000000000000000000000000000000000000000600052601260045260246000fd5b6000613f4082612dbc565b9150613f4b83612dbc565b925082613f5b57613f5a613f06565b5b828204905092915050565b7f1901000000000000000000000000000000000000000000000000000000000000600082015250565b6000613f9c600283613da5565b9150613fa782613f66565b600282019050919050565b6000819050919050565b613fcd613fc882612eaf565b613fb2565b82525050565b6000613fde82613f8f565b9150613fea8285613fbc565b602082019150613ffa8284613fbc565b6020820191508190509392505050565b600060808201905061401f6000830187612f12565b61402c6020830186612f89565b6140396040830185612f12565b6140466060830184612f12565b95945050505050565b7f4e487b7100000000000000000000000000000000000000000000000000000000600052602160045260246000fd5b7f45434453413a20696e76616c6964207369676e61747572650000000000000000600082015250565b60006140b4601883612cb7565b91506140bf8261407e565b602082019050919050565b600060208201905081810360008301526140e3816140a7565b9050919050565b7f45434453413a20696e76616c6964207369676e6174757265206c656e67746800600082015250565b6000614120601f83612cb7565b915061412b826140ea565b602082019050919050565b6000602082019050818103600083015261414f81614113565b9050919050565b7f45434453413a20696e76616c6964207369676e6174757265202773272076616c60008201527f7565000000000000000000000000000000000000000000000000000000000000602082015250565b60006141b2602283612cb7565b91506141bd82614156565b604082019050919050565b600060208201905081810360008301526141e1816141a5565b9050919050565b7f45434453413a20696e76616c6964207369676e6174757265202776272076616c60008201527f7565000000000000000000000000000000000000000000000000000000000000602082015250565b6000614244602283612cb7565b915061424f826141e8565b604082019050919050565b6000602082019050818103600083015261427381614237565b9050919050565b600061428582612dbc565b915061429083612dbc565b925082820261429e81612dbc565b915082820484148315176142b5576142b46133fa565b5b5092915050565b7f4e487b7100000000000000000000000000000000000000000000000000000000600052604160045260246000fd5b60006142f682612dbc565b915060008203614309576143086133fa565b5b600182039050919050565b7f537472696e67733a20686578206c656e67746820696e73756666696369656e74600082015250565b600061434a602083612cb7565b915061435582614314565b602082019050919050565b600060208201905081810360008301526143798161433d565b905091905056fea2646970667358221220cf0638c4ab591487260677b528133f5b9a32f813eea0a0133d1083111a284c5364736f6c63430008110033",
  "linkReferences": {},
  "deployedLinkReferences": {}
}